:020000040800F2
:1000000000000120D5150008D1130008D7130008FF
:10001000DD130008E3130008E913000800000000E6
:10002000000000000000000000000000EF130008C6
:10003000FB13000800000000071400081314000858
:100040001D1600081D1600081D1600081D160008C4
:100050001D1600081D1600081D1600081D160008B4
:100060001D1600081D1600081D1600081D160008A4
:100070001D1600081D1600081D1600081D16000894
:1000800021140008351400081D1600084914000842
:100090005D140008711400081D1600081D160008E4
:1000A0001D1600081D1600081D1600081D16000864
:1000B0001D1600081D1600081D1600081D16000854
:1000C0001D1600081D1600081D1600081D16000844
:1000D0001D1600081D160008851400081D160008CE
:1000E0001D1600081D1600081D160008000000005F
:1000F0000000000000000000000000000000000000
:1001000000000000000000001D1600081D16000879
:100110001D1600081D1600081D1600081D160008F3
:100120001D1600081D1600081D1600081D160008E3
:100130001D1600081D1600081D1600081D160008D3
:100140001D1600081D1600081D1600081D160008C3
:10015000000000000000000000000000000000009F
:10016000000000000000000000000000000000008F
:10017000000000000000000000000000000000007F
:10018000000000000000000000000000000000006F
:10019000000000000000000000000000000000005F
:1001A000000000000000000000000000000000004F
:1001B000000000000000000000000000000000003F
:1001C000000000000000000000000000000000002F
:1001D000000000000000000000000000000000001F
:0401E0005FF8E0F1F3
:1001E40010B5054C237833B9044B13B10448AFF36D
:1001F40000800123237010BD0C00002000000000CB
:100204006051000808B5034B1BB103490348AFF321
:10021400008008BD000000001000002060510008AC
:1002240053B94AB9002908BF00281CBF4FF0FF3159
:100234004FF0FF3000F072B9ADF1080C6DE904CE57
:1002440000F006F8DDF804E0DDE9022304B07047AD
:100254002DE9F047089E0D4604468E46002B4CD1EE
:100264008A42944667D9B2FA82F353B102FA03FC84
:10027400C3F1200201FA03FE20FA02F242EA0E0E52
:100284009C404FEA1C47BEFBF7F11FFA8CF507FBB5
:1002940011EE01FB05F0220C42EA0E4290420AD90B
:1002A4001CEB020201F1FF3E80F01981904240F202
:1002B400168102396244121AB2FBF7F007FB1022CE
:1002C40000FB05F5A4B244EA0244A5420AD91CEB9A
:1002D400040400F1FF3280F00481A54240F2018160
:1002E4006444023840EA01400021641B1EB1DC4032
:1002F4000023C6E90043BDE8F0878B4208D9002EED
:1003040000F0EA800021C6E900050846BDE8F08750
:10031400B3FA83F1002948D1AB4202D3824200F2FE
:10032400F880841A65EB030201209646002EE2D081
:10033400C6E9004EDFE702B9FFDEB2FA82F3002B12
:1003440040F08E80881A0121170C1FFA82FEB0FB40
:10035400F7F507FB1500220C42EA00420EFB05F0FC
:10036400904208D91CEB020205F1FF3802D29042F8
:1003740000F2CC804546121AB2FBF7F007FB1022BC
:100384000EFB00FEA4B244EA0244A64508D91CEBC5
:10039400040400F1FF3202D2A64500F2B4801046F4
:1003A400A4EB0E0440EA0540A0E7C1F120078B400E
:1003B40022FA07FC4CEA030C25FA07FA4FEA1C4917
:1003C400BAFBF9F88D4020FA07F309FB18AA1FFAC3
:1003D4008CFE2B4300FA01F508FB0EF01C0C44EADA
:1003E4000A44A04202FA01F20BD91CEB040408F1FE
:1003F400FF3A80F08680A04240F28380A8F1020890
:100404006444241A98B2B4FBF9F309FB134403FBC4
:100414000EFE40EA0444A64508D91CEB040403F18B
:10042400FF306AD2A64568D9023B644443EA0840D7
:10043400A0FB0293A4EB0E049C42C8469E4654D3F0
:1004440051D0002E67D0B5EB080364EB0E04CB400B
:1004540004FA07F71F43CC40C6E9007400214AE7B9
:1004640002FA03FCC3F12000C1409D4024FA00F0CD
:100474004FEA1C472843B1FBF7F507FB15111FFA98
:100484008CFE020C42EA014205FB0EF1914204FA91
:1004940003F408D91CEB020205F1FF382FD2914274
:1004A4002DD9023D6244521AB2FBF7F107FB112227
:1004B40080B240EA024001FB0EF2824208D91CEBF2
:1004C400000001F1FF3816D2824214D90239604487
:1004D400801A41EA05413AE7314630460BE7714656
:1004E400E9E61046FEE64D45ABD2B9EB020863EBF4
:1004F4000C0E0138A5E74146EAE7034696E7454670
:10050400D1E7D0467DE76444023849E7023D6244BE
:1005140031E708460AE73146EDE600BF704700BF01
:1005240080B400AF064B1A78064B1B789A4214BF6E
:1005340001230023DBB21846BD4680BC704700BFD0
:10054400C0040020C104002080B483B000AF1A4B63
:100554001B78FB71184B1B785A1C184B83FB021336
:100564009910D317C91A0B469B000B445B00D11A90
:100574000B46BB71124B1B78BA799A420AD00E4AC9
:10058400BB791370FA7913469B001344DB000D4AC0
:1005940013440CE00C4B1B780133DAB20A4B1A708B
:1005A400FA7913469B001344DB00064A13441846A9
:1005B4000C37BD4680BC7047C00400206766666681
:1005C400C104002028010020C204002080B483B0AC
:1005D40000AF144B1A78144B1B789A4201D10023B4
:1005E4001AE0114B1B78FB710F4B1B785A1C0F4BF5
:1005F40083FB02139910D317C91A0B469B000B44B3
:100604005B00D11ACAB2084B1A70FA7913469B00E0
:100614001344DB00064A134418460C37BD4680BC1D
:10062400704700BFC0040020C104002067666666EE
:100634002801002080B400AF024B1B781846BD4649
:1006440080BC7047C204002080B400AF064B1A7807
:10065400064B1B789A4214BF01230023DBB21846D1
:10066400BD4680BC704700BFC3040020C404002002
:1006740080B483B000AF1B4B1B785A1C1A4B83FB0E
:1006840002139910D317C91A0B469B000B445B0045
:10069400D11A0B46FB71154B1B78FA799A420CD090
:1006A400104AFB7913700F4B1B781A461346DB0074
:1006B40013449B000E4A13440EE00E4B1B78013387
:1006C400DAB20C4B1A70074B1B781A461346DB0040
:1006D40013449B00064A134418460C37BD4680BC9D
:1006E400704700BFC304002067666666C404002028
:1006F400B8020020C504002080B483B000AF144BBE
:100704001A78144B1B789A4201D100231AE0114B3A
:100714001B78FB710F4B1B785A1C0F4B83FB021386
:100724009910D317C91A0B469B000B445B00D11ACE
:10073400CAB2084B1A70FA791346DB0013449B00C3
:10074400064A134418460C37BD4680BC704700BFA8
:10075400C3040020C404002067666666B802002053
:1007640080B400AF024B1B781846BD4680BC70476E
:10077400C504002080B400AF064B1A78064B1B78E2
:100784009A4214BF01230023DBB21846BD4680BC45
:10079400704700BFC6040020C704002080B483B0A3
:1007A40000AF184B1B78FB71164B1B785A1C164B69
:1007B40083FB02139910D317C91A0B469B000B44F1
:1007C4005B00D11A0B46BB71104B1B78BA799A4265
:1007D40007D00C4ABB791370FB791B010C4A1344F4
:1007E4000AE00C4B1B780133DAB20A4B1A70054B42
:1007F4001B781B01064A134418460C37BD4680BCBF
:10080400704700BFC604002067666666C704002000
:1008140020040020C804002080B483B000AF124B31
:100824001A78124B1B789A4201D1002317E00F4B20
:100834001B78FB710D4B1B785A1C0D4B83FB021369
:100844009910D317C91A0B469B000B445B00D11AAD
:10085400CAB2064B1A70FB791B01064A13441846A8
:100864000C37BD4680BC7047C6040020C704002076
:10087400676666662004002080B400AF024B1B78D4
:100884001846BD4680BC7047C804002080B483B0BD
:1008940000AF0346FB7197F90730002B0BDBFB79A4
:1008A40003F01F02064997F907305B09012000FA9B
:1008B40002F241F8232000BF0C37BD4680BC7047CC
:1008C40000E100E080B483B000AF0346FB7197F908
:1008D4000730002B12DBFB7903F01F020A4997F95A
:1008E40007305B09012000FA02F2203341F823208B
:1008F400BFF34F8F00BFBFF36F8F00BF00BF0C3734
:10090400BD4680BC704700BF00E100E080B58CB0FC
:1009140000AF00F083FE00F085F800F05DF900F010
:1009240035F900F009F900F0D1F80023BB61002388
:10093400FB6101233B6200237B600023BB60002337
:10094400FB6000233B6100237B6101237B620E2358
:10095400BB623B1D19462F4800F0E0FF02212D48E1
:1009640001F039FB0346002B01D000F08FFB04217A
:10097400284801F030FB0346002B01D000F086FB31
:100984001021244801F027FB0346002B01D000F07E
:100994007DFB20211F4801F01EFB0346002B01D0E4
:1009A40000F074FB1B4801F099F80346002B01D0BA
:1009B40000F06CFB0423FB70F91C4FF47A730422DF
:1009C400154803F0BFFA154BFB622422F96A12485A
:1009D40003F03BFB0346002B01D000F057FB00F073
:1009E400B7FA00F051F9FFF7BBFE0346002B09D11B
:1009F400FFF720FE0346002B04D1FFF73DFF03461B
:100A0400002BECD001224FF40071054802F026FDC2
:100A1400E5E700BF2800002050000020B8020020B5
:100A2400000C014080B594B000AF07F118033822E0
:100A34000021184604F066FB3B1D00221A605A6030
:100A44009A60DA601A610123BB614FF480333B6220
:100A540004237B620123FB624FF48033FB61022396
:100A6400BB634FF48033FB634FF4E0133B64022316
:100A74007B644FF4C063BB644023FB6407F1180339
:100A8400184602F003FD0346002B01D000F0FEFAE5
:100A94000F237B600223BB600023FB604FF4806361
:100AA4003B6100237B613B1D0221184603F004F8DF
:100AB4000346002B01D000F0E9FA034B01221A602F
:100AC40000BF5037BD4680BD7000424280B500AFC4
:100AD400174B184A1A60164B08225A60144B00220E
:100AE4009A60134B0022DA60114B4FF4C0221A6152
:100AF4000F4B00225A610E4B00221A760C4B002237
:100B04005A760B4B00229A76094B0022DA76084B70
:100B140000221A77064B00225A77054800F0E0FDC0
:100B24000346002B01D000F0B1FA00BF80BD00BF26
:100B3400280000200064004080B500AF114B124A29
:100B44001A60104B4FF461325A600E4B00229A60C7
:100B54000C4B0022DA600B4B00221A61094B0C2269
:100B64005A61084B00229A61064B0022DA6105485B
:100B740003F098F90346002B01D000F087FA00BF78
:100B840080BD00BF500000200044004080B582B00A
:100B940000AF104B5B690F4A43F0010353610D4BE7
:100BA4005B6903F001037B607B6800220021102055
:100BB40001F04BFD102001F064FD00220021112002
:100BC40001F043FD112001F05CFD00BF0837BD4674
:100BD40080BD00BF0010024080B588B000AF07F1AF
:100BE400100300221A605A609A60DA60244B9B69F1
:100BF400234A43F010039361214B9B6903F01003D4
:100C0400FB60FB681E4B9B691D4A43F00403936120
:100C14001B4B9B6903F00403BB60BB68184B9B69C7
:100C2400174A43F020039361154B9B6903F020039B
:100C34007B607B68124B9B69114A43F00803936104
:100C44000F4B9B6903F008033B603B6800224FF4A1
:100C540000710C4802F002FC4FF400733B61012365
:100C64007B610223BB610223FB6107F11003194678
:100C7400044802F0B3F900BF2037BD4680BD00BF71
:100C840000100240000C0140B0B59AB000AFFFF76D
:100C9400DBFC0346002B00F051812620FFF712FEF7
:100CA400FFF72AFD0346A74A1360A64B1B681B786F
:100CB400012B0FD1A34B1B68191DA24B1B6803F119
:100CC4001C02A14BA14800F096FF0346002B01D063
:100CD40000F0DCF99B4B1B681B78002B40F02B8148
:100CE400984B1B687B66974B1B683B667B6E07F1D2
:100CF4004C041D460FCD0FC42B6823603B6E3C1D76
:100D04001D460FCD0FC495E80F0084E80F007B6EDD
:100D14001B79042B00F2048101A252F823F000BFD6
:100D2400390D00085D0D0008C90D0008530E0008B8
:100D3400D10E0008854800F015FF0346002B01D0B2
:100D440000F0A4F9814800F0C6FD0346002B00F032
:100D5400E98000F09BF9E5E07C4800F0C1FC034623
:100D6400002B01D000F092F9784800F0B7FE03465A
:100D7400002B01D000F08AF90221744801F02BF90C
:100D84000346002B01D000F081F904216F4801F0E3
:100D940022F90346002B01D000F078F910216B48AA
:100DA40001F019F90346002B01D000F06FF920215E
:100DB400664801F010F90346002B00F0B58000F0FE
:100DC40065F9B1E0614800F0CDFE0346002B01D087
:100DD40000F05CF95D4800F07EFD0346002B01D075
:100DE40000F054F9594800F07BFC0346002B01D075
:100DF40000F04CF9554800F071FE0346002B01D079
:100E040000F044F90221514801F0E5F80346002BB3
:100E140001D000F03BF904214C4801F0DCF8034612
:100E2400002B01D000F032F91021484801F0D3F82A
:100E34000346002B01D000F029F92021434801F09A
:100E4400CAF80346002B71D000F020F96EE07B6EE7
:100E54005B791A463D4B1A607B6E9B791A463B4B75
:100E64005A607B6EDB791A46384B9A607B6E1B7A2C
:100E74001A46364BDA607B6E5B7A1A46334B1A613C
:100E84007B6E9B7A1A46314B5A617B6EDA7A2F4B12
:100E94001A767B6E1A7B2D4B5A767B6E5A7B2B4BC4
:100EA4009A767B6E9A7B294BDA767B6EDA7B274BBC
:100EB4001A777B6E1A7C254B5A77244800F010FC75
:100EC4000346002B34D000F0E1F831E03B6E5B7E4A
:100ED400BB633B6E9B7EFB633B6EDB7E3B643B6E86
:100EE4001B697B623B6EDB68BB623B6E1B69FB620A
:100EF4003B6EDB683B633B6E1B7E7B633B6E1B7F01
:100F04007B643B6E5B7FBB6407F1240319460F4887
:100F140000F004FD0346002B0CD000F0B7F809E004
:100F240000BF08E000BF06E000BF04E000BF02E02D
:100F340000BF00E000BF2620FFF7A8FC00BF683711
:100F4400BD46B0BDCC0400202001002028000020B4
:100F540080B500AFFFF7E4FA0346002B00F08E8063
:100F64001420FFF7AFFCFFF731FB0346444A13603C
:100F7400434B1B681B78032B7DD1FFF70FFC034603
:100F8400404A13603E4B1B68DB68002B08D03C4B87
:100F94001B689A683B4B1B6842F0C0421A6007E02A
:100FA400374B1B685A68374B1B6842F0C0421A60C3
:100FB400334B1B685B69D9B2314B1B681B69DBB2CD
:100FC400DB01DAB22F4B1B680A43D2B21A712C4BE5
:100FD4001A682C4B1B6892F820205A71284B1A6807
:100FE400284B1B6892F821209A71254B1A68254BCF
:100FF4001B6892F82220DA71214B1A68214B1B6876
:1010040092F823201A721E4B1A681E4B1B6892F822
:1010140024205A721A4B1A681A4B1B6892F825201E
:101024009A72174B1A68174B1B6892F82620DA72CB
:10103400134B1A68134B1B6892F827201A73124B30
:1010440093F84130DBB2202B15D1FFF793FB034615
:10105400002B10D0FFF7E0FB03460A4A1360094B4C
:101064001B680D221946084803F014F80346002BA8
:1010740001D000F00BF81420FFF708FC00BF80BD7E
:10108400D0040020D40400205000002080B500AF1C
:1010940072B600BF4FF47A730D220549054802F079
:1010A40051FF01224FF40071034802F0D7F9F1E730
:1010B4007851000850000020000C014080B485B035
:1010C40000AF154B9B69144A43F001039361124B23
:1010D4009B6903F00103BB60BB680F4BDB690E4ADD
:1010E40043F08053D3610C4BDB6903F080537B6086
:1010F4007B680A4B5B68FB60FB6823F0E063FB6082
:10110400FB6843F00073FB60044AFB68536000BF54
:101114001437BD4680BC70470010024000000140F7
:1011240080B58AB000AF786007F1140300221A601A
:101134005A609A60DA607B681B68304A934259D1DE
:101144002F4BDB692E4A43F00073D3612C4BDB69D0
:1011540003F000733B613B69294B9B69284A43F0C8
:1011640020039361264B9B6903F02003FB60FB681B
:1011740001237B610023BB610023FB6107F114039E
:101184001946204801F02AFF02237B610223BB6138
:1011940003233B6207F1140319461A4801F01EFFAA
:1011A400194B5B687B627B6A23F4C0437B627B6A76
:1011B40043F0E0637B627B6A43F4C0437B62124A80
:1011C4007B6A536000220021132001F03EFA1320B1
:1011D40001F057FA00220021142001F036FA1420FD
:1011E40001F04FFA00220021152001F02EFA1520FB
:1011F40001F047FA00BF2837BD4680BD00640040B7
:1012040000100240001401400000014080B582B08B
:1012140000AF78607B681B680C4A934212D10C4B78
:10122400DB690B4A23F00073D3610321094802F000
:1012340059F8132001F033FA142001F030FA152084
:1012440001F02DFA00BF0837BD4680BD00640040A0
:10125400001002400014014080B58AB000AF7860ED
:1012640007F1140300221A605A609A60DA607B68FE
:101274001B684E4A934240F094804D4BDB694C4AC4
:1012840043F40033D3614A4BDB6903F400333B611D
:101294003B69474B9B69464A43F020039361444BA7
:1012A4009B6903F02003FB60FB6820237B6102231E
:1012B400BB6103233B6207F1140319463D4801F067
:1012C4008DFE40237B610023BB610023FB6107F19A
:1012D40014031946374801F081FE374B5B687B6283
:1012E4007B6A43F0E0637B627B6A43F008037B62C2
:1012F400314A7B6A5360314B314A1A602F4B1022BA
:101304005A602E4B00229A602C4B8022DA602B4BC1
:1013140000221A61294B00225A61284B00229A614B
:10132400264B4FF48052DA61244801F0D3F9034686
:10133400002B01D0FFF7AAFE7B68204A9A631F4A5C
:101344007B6853621F4B204A1A601E4B00225A606E
:101354001C4B00229A601B4B8022DA60194B00223E
:101364001A61184B00225A61164B00229A61154BE0
:101374004FF48052DA61134801F0ACF90346002BB4
:1013840001D0FFF783FE7B680E4ADA630D4A7B685F
:10139400536200220021262001F057F9262001F093
:1013A40070F900BF2837BD4680BD00BF004400402F
:1013B4000010024000140140000001409800002089
:1013C40080000240DC0000206C00024080B400AFCA
:1013D400FEE780B400AFFEE780B400AFFEE780B460
:1013E40000AFFEE780B400AFFEE780B400AF00BFFB
:1013F400BD4680BC704780B400AF00BFBD4680BC12
:10140400704780B400AF00BFBD4680BC704780B554
:1014140000AF00F049F900BF80BD000080B500AF07
:10142400024801F071FB00BF80BD00BFDC0000205A
:1014340080B500AF024801F067FB00BF80BD00BF6C
:101444009800002080B500AF024800F0E9FD00BF1D
:1014540080BD00BF2800002080B500AF024800F026
:10146400DFFD00BF80BD00BF2800002080B500AFB5
:10147400024800F0D5FD00BF80BD00BF2800002059
:1014840080B500AF024802F09BFE00BF80BD00BFE4
:101494005000002080B582B000AF78607B680E4AAF
:1014A400934215D1FFF766F90346002B10D0FFF7DE
:1014B400B3F90346094A1360084B1B680D22194609
:1014C400786802F0E7FD0346002B01D0FFF7DEFD4C
:1014D40000BF0837BD4680BD50000020D80400205E
:1014E40080B582B000AF78607B680C4A934210D11B
:1014F400FFF7BEF803460A4A1360094B1B6824220F
:101504001946064802F036FE0346002B01D0FFF7C9
:10151400BDFD00BF0837BD4680BD00BF50000020A0
:10152400DC04002080B582B000AF7860FFF70CF8CF
:1015340003460D4A13600C4B1B6803221A700B4BB5
:101544001968094B1B681A1D074B1B682033084890
:1015540000F020FC0346002B01D0FFF797FD00BFED
:101564000837BD4680BD00BFE004002024010020F0
:101574002800002080B582B000AF7860FEF7E4FF59
:1015840003460D4A13600C4B1B6803221A700B4B65
:101594001968094B1B681A1D074B1B682033084840
:1015A40000F0F8FB0346002B01D0FFF76FFD00BFEE
:1015B4000837BD4680BD00BFE4040020240100209C
:1015C4002800002080B400AF00BFBD4680BC704737
:1015D400FFF7F8FF0B480C490C4A002302E0D458EB
:1015E400C4500433C4188C42F9D3094A094C00236B
:1015F40001E013600432A242FBD303F08BFDFFF73A
:1016040085F97047000000200C000020D05100082C
:101614000C000020EC040020FEE7000080B500AFC1
:10162400084B1B68074A43F010031360032001F0C2
:1016340001F80F2000F008F8FFF740FD00231846DA
:1016440080BD00BF0020024080B582B000AF78604A
:10165400124B1A68124B1B7819464FF47A73B3FB7A
:10166400F1F3B2FBF3F3184601F027F80346002B1D
:1016740001D001230EE07B680F2B0AD80022796881
:101684004FF0FF3000F0E1FF064A7B68136000234F
:1016940000E0012318460837BD4680BD0000002045
:1016A400080000200400002080B400AF054B1B7824
:1016B4001A46054B1B681344034A136000BFBD461A
:1016C40080BC704708000020E804002080B400AF0C
:1016D400024B1B681846BD4680BC7047E8040020D6
:1016E40080B584B000AF78607B68002B01D1012302
:1016F400EDE07B6893F82030DBB2002B02D17868F0
:10170400FFF70EFD7B681B681A687B681B6842F054
:1017140001021A60FFF7DAFFF86012E0FFF7D6FF64
:101724000246FB68D31A0A2B0BD97B685B6A43F425
:1017340000327B685A627B68052283F820200123EB
:10174400C5E07B681B685B6803F00103002BE5D0F0
:101754007B681B681A687B681B6822F002021A60A7
:10176400FFF7B4FFF86012E0FFF7B0FF0246FB6832
:10177400D31A0A2B0BD97B685B6A43F400327B686B
:101784005A627B68052283F8202001239FE07B684E
:101794001B685B6803F00203002BE5D17B681B7EAA
:1017A400012B08D17B681B681A687B681B6842F0B0
:1017B40080021A6007E07B681B681A687B681B68F4
:1017C40022F080021A607B685B7E012B08D17B6863
:1017D4001B681A687B681B6842F040021A6007E0C5
:1017E4007B681B681A687B681B6822F040021A60D9
:1017F4007B689B7E012B08D17B681B681A687B6819
:101804001B6842F020021A6007E07B681B681A68B4
:101814007B681B6822F020021A607B68DB7E012B48
:1018240008D17B681B681A687B681B6822F0100269
:101834001A6007E07B681B681A687B681B6842F0C3
:1018440010021A607B681B7F012B08D17B681B6820
:101854001A687B681B6842F008021A6007E07B681C
:101864001B681A687B681B6822F008021A607B6890
:101874005B7F012B08D17B681B681A687B681B6837
:1018840042F004021A6007E07B681B681A687B68F0
:101894001B6822F004021A607B689A687B68DB6824
:1018A4001A437B681B691A437B685B6942EA03013C
:1018B4007B685B685A1E7B681B680A43DA617B6835
:1018C40000225A627B68012283F8202000231846F4
:1018D4001037BD4680BD80B582B000AF78607B68AC
:1018E400002B01D1012315E0786800F03BF97868FA
:1018F400FFF78CFC7B681B681A687B681B6842F4E2
:1019040000421A607B6800225A627B68002283F8D6
:101914002020002318460837BD4680BD80B487B018
:1019240000AF786039607B681B687B617B6893F8E3
:101934002030FB74FB7C012B03D0FB7C022B40F09A
:10194400BE80654B7B617B69D3F8003243F00102B2
:101954007B69C3F800227B69D3F8003223F47C52FC
:101964007B69C3F800227B69D3F800223B685B6A79
:101974001B021A437B69C3F800223B685B6903F0CE
:101984001F03012202FA03F3FB607B69D3F81C22D4
:10199400FB68DB431A407B69C3F81C223B68DB69A4
:1019A400002B23D17B69D3F80C22FB68DB431A405C
:1019B4007B69C3F80C223B68DB6819043B685B68ED
:1019C4009BB23A68526919437B69483243F8321032
:1019D4003B689B6819043B681B689AB23B685B6967
:1019E4000A4379694833DB000B445A603B68DB697E
:1019F400012B22D17B69D3F80C22FB681A437B6943
:101A0400C3F80C223B681B6819043B685B689BB2F3
:101A14003A68526919437B69483243F832103B688B
:101A24009B6819043B68DB689AB23B685B690A43AC
:101A340079694833DB000B445A603B689B69002B8F
:101A440009D17B69D3F80422FB68DB431A407B6924
:101A5400C3F8042207E07B69D3F80422FB681A4325
:101A64007B69C3F804223B681B69002B09D17B699D
:101A7400D3F81422FB68DB431A407B69C3F81422B1
:101A840007E07B69D3F81422FB681A437B69C3F827
:101A940014223B681B6A012B07D17B69D3F81C22F3
:101AA400FB681A437B69C3F81C227B69D3F80032B4
:101AB40023F001027B69C3F80022002306E07B685F
:101AC4005B6A43F480227B685A62012318461C3700
:101AD400BD4680BC704700BF0064004080B584B040
:101AE40000AF78607B6893F82030DBB2012B2ED1F5
:101AF4007B68022283F820207B681B681A687B6855
:101B04001B6822F001021A60FFF7E0FDF86012E0A2
:101B1400FFF7DCFD0246FB68D31A0A2B0BD97B685E
:101B24005B6A43F400327B685A627B68052283F85F
:101B34002020012312E07B681B685B6803F001032B
:101B4400002BE5D17B6800225A62002306E07B6803
:101B54005B6A43F400227B685A62012318461037FB
:101B6400BD4680BD80B584B000AF78607B6893F8D3
:101B74002030DBB2022B33D17B681B681A687B6888
:101B84001B6842F001021A60FFF7A0FDF86012E042
:101B9400FFF79CFD0246FB68D31A0A2B0BD97B681E
:101BA4005B6A43F400327B685A627B68052283F8DF
:101BB400202001231BE07B681B685B6803F00103A2
:101BC400002BE5D07B681B681A687B681B6822F0D1
:101BD40002021A607B68012283F82020002306E0B9
:101BE4007B685B6A43F480127B685A62012318465F
:101BF4001037BD4680BD80B489B000AFF860B960CD
:101C04007A603B60FB6893F82030FB77FB681B68C5
:101C14009B68BB61FB7F012B03D0FB7F022B40F051
:101C2400AD80BB6903F08063002B0AD1BB6903F06C
:101C34000063002B05D1BB6903F08053002B00F037
:101C44009580BB691B0E03F003037B6101227B6952
:101C54009A403B681A60BB689B68002B0DD1BB6837
:101C64001B685A05BB68DB68F96809681A437B6915
:101C740018331B010B441A600FE0BB685B68DA0081
:101C8400BB689B681A43BB68DB68F96809681A4338
:101C94007B6918331B010B441A60FB681968BB6825
:101CA4001A697B6918331B010B4404331A60BB683F
:101CB4001B7D012B11D1FB681A687B6918331B014A
:101CC400134404331B68FA68116843F480727B6917
:101CD40018331B010B4404331A607B6807331B78E9
:101CE4001A067B6806331B781B041A437B6805338A
:101CF4001B781B0213437A68043212781046FA6880
:101D0400116843EA00027B691B010B4403F5C673A7
:101D14001A607B6803331B781A067B6802331B78CE
:101D24001B041A437B6801331B781B0213437A6834
:101D340012781046FA68116843EA00027B691B01B5
:101D44000B4403F5C4731A60FB681A687B69183383
:101D54001B0113441B68FA68116843F001027B6994
:101D640018331B010B441A6000230EE0FB685B6A06
:101D740043F40012FB685A62012306E0FB685B6AC5
:101D840043F48022FB685A62012318462437BD4677
:101D940080BC704780B487B000AFF860B9607A60E7
:101DA4003B60FB6893F82030FB75FB7D012B03D06F
:101DB400FB7D022B40F00381BB68002B0ED1FB6836
:101DC4001B68DB6803F00303002B16D1FB685B6A16
:101DD40043F40012FB685A620123F7E0FB681B68B6
:101DE4001B6903F00303002B07D1FB685B6A43F410
:101DF4000012FB685A620123E8E0FB681A68BB68BA
:101E04001B331B0113441B6803F004027B689A60B4
:101E14007B689B68002B0CD1FB681A68BB681B337A
:101E24001B0113441B685B0DC3F30A027B681A6031
:101E34000BE0FB681A68BB681B331B0113441B6867
:101E4400DB0823F060427B685A60FB681A68BB6851
:101E54001B331B0113441B6803F002027B68DA6026
:101E6400FB681A68BB681B331B01134404331B68EB
:101E740003F00803002B03D07B6808221A610BE0EF
:101E8400FB681A68BB681B331B01134404331B68CB
:101E940003F00F027B681A61FB681A68BB681B3386
:101EA4001B01134404331B681B0ADAB27B689A6172
:101EB400FB681A68BB681B331B01134404331B689B
:101EC4001B0C9AB27B685A61FB681A68BB681B01D9
:101ED400134403F5DC731B68DAB23B681A70FB68C1
:101EE4001A68BB681B01134403F5DC731B681A0AE8
:101EF4003B680133D2B21A70FB681A68BB681B01D5
:101F0400134403F5DC731B681A0C3B680233D2B22A
:101F14001A70FB681A68BB681B01134403F5DC7371
:101F24001B681A0E3B680333D2B21A70FB681A6836
:101F3400BB681B01134403F5DE731A683B68043362
:101F4400D2B21A70FB681A68BB681B01134403F50C
:101F5400DE731B681A0A3B680533D2B21A70FB6839
:101F64001A68BB681B01134403F5DE731B681A0C63
:101F74003B680633D2B21A70FB681A68BB681B014F
:101F8400134403F5DE731B681A0E3B680733D2B2A1
:101F94001A70BB68002B08D1FB681B68DA68FB6801
:101FA4001B6842F02002DA6007E0FB681B681A69CC
:101FB400FB681B6842F020021A61002306E0FB68FC
:101FC4005B6A43F48022FB685A62012318461C377B
:101FD400BD4680BC704780B485B000AF786039607E
:101FE4007B6893F82030FB73FB7B012B02D0FB7BD7
:101FF400022B09D17B681B6859697B681B683A68A6
:102004000A435A61002306E07B685B6A43F480223A
:102014007B685A62012318461437BD4680BC70475A
:1020240080B58AB000AF786000237B627B681B6850
:102034005B693B627B681B685B68FB617B681B6850
:102044009B68BB617B681B68DB687B617B681B6882
:102054001B693B617B681B689B69FB603B6A03F0FF
:102064000103002B7CD0BB6903F00103002B23D0B8
:102074007B681B6801229A60BB6903F00203002B92
:1020840003D0786800F083F916E0BB6903F0040319
:10209400002B04D07B6A43F400637B620CE0BB69D1
:1020A40003F00803002B04D07B6A43F480537B6263
:1020B40002E0786800F086F9BB6903F48073002BB2
:1020C40024D07B681B684FF480729A60BB6903F468
:1020D4000073002B03D0786800F062F916E0BB6946
:1020E40003F48063002B04D07B6A43F400537B62C7
:1020F4000CE0BB6903F40063002B04D07B6A43F457
:1021040080437B6202E0786800F065F9BB6903F400
:102114008033002B24D07B681B684FF480329A6094
:10212400BB6903F40033002B03D0786800F041F955
:1021340016E0BB6903F48023002B04D07B6A43F4CC
:1021440000437B620CE0BB6903F40023002B04D042
:102154007B6A43F480337B6202E0786800F044F9E0
:102164003B6A03F00803002B0CD07B6903F01003D7
:10217400002B07D07B6A43F400737B627B681B6887
:102184001022DA603B6A03F00403002B0BD07B6956
:1021940003F00803002B06D07B681B680822DA6072
:1021A400786800F02AF93B6A03F00203002B09D097
:1021B4007B681B68DB6803F00303002B02D078689C
:1021C400FFF7B0F93B6A03F04003002B0CD03B69E6
:1021D40003F01003002B07D07B6A43F480637B6217
:1021E4007B681B6810221A613B6A03F02003002BF2
:1021F4000BD03B6903F00803002B06D07B681B68F7
:1022040008221A61786800F001F93B6A03F01003B0
:10221400002B09D07B681B681B6903F00303002BA8
:1022240002D07868FFF7A6F93B6A03F40033002B69
:102234000BD0FB6903F01003002B06D07B681B68EE
:1022440010225A60786800F0EAF83B6A03F480339D
:10225400002B0BD0FB6903F00803002B06D07B682E
:102264001B6808225A60786800F0E2F83B6A03F4BD
:102274000043002B7BD0FB6903F00403002B72D0D6
:102284003B6A03F48073002B08D0FB6803F001035E
:10229400002B03D07B6A43F001037B623B6A03F4A7
:1022A4000073002B08D0FB6803F00203002B03D05B
:1022B4007B6A43F002037B623B6A03F48063002B76
:1022C40008D0FB6803F00403002B03D07B6A43F0BF
:1022D40004037B623B6A03F40063002B43D0FB6876
:1022E40003F07003002B3ED0FB6803F07003602BF7
:1022F4002BD0602B2ED8502B22D0502B2AD8402BF9
:1023040019D0402B26D8302B10D0302B22D8102BAC
:1023140002D0202B05D01DE07B6A43F008037B62CA
:1023240019E07B6A43F010037B6214E07B6A43F09C
:1023340020037B620FE07B6A43F040037B620AE088
:102344007B6A43F080037B6205E07B6A43F480731D
:102354007B6200E000BF7B681B689A697B681B682E
:1023640022F070029A617B681B6804225A607B6ABF
:10237400002B08D07B685A6A7B6A1A437B685A62CE
:10238400786800F05EF800BF2837BD4680BD80B491
:1023940083B000AF786000BF0C37BD4680BC704787
:1023A40080B483B000AF786000BF0C37BD4680BCFA
:1023B400704780B483B000AF786000BF0C37BD466F
:1023C40080BC704780B483B000AF786000BF0C3726
:1023D400BD4680BC704780B483B000AF786000BF56
:1023E4000C37BD4680BC704780B483B000AF7860C2
:1023F40000BF0C37BD4680BC704780B483B000AFCB
:10240400786000BF0C37BD4680BC704780B483B091
:1024140000AF786000BF0C37BD4680BC704780B405
:1024240083B000AF786000BF0C37BD4680BC7047F6
:1024340080B483B000AF786000BF0C37BD4680BC69
:10244400704780B483B000AF786000BF0C37BD46DE
:1024540080BC704780B485B000AF78607B6803F0BF
:102464000703FB600C4BDB68BB60BA684FF6FF03E5
:102474001340BB60FB681A02BB68134343F0BF639D
:1024840043F40033BB60044ABB68D36000BF143715
:10249400BD4680BC704700BF00ED00E080B400AFD3
:1024A400044BDB681B0A03F007031846BD4680BCD7
:1024B400704700BF00ED00E080B483B000AF034676
:1024C400FB7197F90730002B0BDBFB7903F01F023C
:1024D400064997F907305B09012000FA02F241F836
:1024E400232000BF0C37BD4680BC704700E100E0EC
:1024F40080B483B000AF0346FB7197F90730002B1B
:1025040012DBFB7903F01F020A4997F907305B09D4
:10251400012000FA02F2203341F82320BFF34F8F49
:1025240000BFBFF36F8F00BF00BF0C37BD4680BC38
:10253400704700BF00E100E080B483B000AF034601
:102544003960FB7197F90730002B0ADB3B68DAB27C
:102554000C4997F907301201D2B20B4483F80023D7
:102564000AE03B68DAB20849FB7903F00F03043B45
:102574001201D2B20B441A7600BF0C37BD4680BCA0
:10258400704700BF00E100E000ED00E080B489B0D6
:1025940000AFF860B9607A60FB6803F00703FB6181
:1025A400FB69C3F10703042B28BF0423BB61FB6948
:1025B4000433062B02D9FB69033B00E000237B6153
:1025C4004FF0FF32BB6902FA03F3DA43BB681A40E7
:1025D4007B699A404FF0FF317B6901FA03F3D943D9
:1025E4007B680B40134318462437BD4680BC7047B4
:1025F40080B582B000AF78607B68013BB3F1807F27
:1026040001D301230FE00A4A7B68013B53600F2189
:102614004FF0FF30FFF790FF054B00229A60044B08
:1026240007221A60002318460837BD4680BD00BF44
:1026340010E000E080B582B000AF78607868FFF702
:1026440009FF00BF0837BD4680BD80B586B000AF26
:102654000346B9607A60FB7300237B61FFF71EFFBA
:1026640078617A68B9687869FFF790FF024697F94C
:102674000F3011461846FFF75FFF00BF1837BD46FD
:1026840080BD80B582B000AF0346FB7197F9073077
:102694001846FFF711FF00BF0837BD4680BD80B55F
:1026A40082B000AF0346FB7197F907301846FFF775
:1026B4001FFF00BF0837BD4680BD80B582B000AFA4
:1026C40078607868FFF794FF034618460837BD46DC
:1026D40080BD000080B485B000AF78600023FB604B
:1026E4007B68002B01D1012359E07B681B681A46E3
:1026F4002D4B9A420FD87B681B681A462B4B134408
:102704002B4AA2FB03231B099A007B681A647B688B
:10271400284ADA630EE07B681B681A46264B13448A
:10272400234AA2FB03231B099A007B681A647B6873
:10273400224ADA637B68022283F821207B681B68C3
:102744001B68FB60FB6823F47F5323F03003FB60BA
:102754007B685A687B689B681A437B68DB681A430A
:102764007B681B691A437B685B691A437B689B69B6
:102774001A437B68DB691343FA681343FB607B6885
:102784001B68FA681A607B6800229A637B680122DE
:1027940083F821207B68002283F820200023184638
:1027A4001437BD4680BC704707040240F8FFFDBFE4
:1027B400CDCCCCCC00000240F8FBFDBF00040240AD
:1027C40080B586B000AFF860B9607A603B600023E2
:1027D400FB75FB6893F82030012B01D102234BE0F9
:1027E400FB68012283F82020FB6893F82130DBB2D8
:1027F400012B3AD1FB68022283F82120FB680022D6
:102804009A63FB681B681A68FB681B6822F0010264
:102814001A603B687A68B968F86800F0B1FBFB6835
:10282400DB6A002B08D0FB681B681A68FB681B680E
:1028340042F00E021A600FE0FB681B681A68FB681E
:102844001B6822F004021A60FB681B681A68FB68A4
:102854001B6842F00A021A60FB681B681A68FB686E
:102864001B6842F001021A6005E0FB68002283F84D
:1028740020200223FB75FB7D18461837BD4680BD1A
:1028840080B485B000AF78600023FB737B6893F855
:102894002130DBB2022B08D07B6804229A637B6868
:1028A400002283F82020012320E07B681B681A683B
:1028B4007B681B6822F00E021A607B681B681A682A
:1028C4007B681B6822F001021A607B681A6C7B68C3
:1028D400DB6B012101FA02F25A607B68012283F862
:1028E40021207B68002283F82020FB7B18461437C4
:1028F400BD4680BC7047000080B584B000AF7860EE
:102904000023FB737B6893F82130DBB2022B05D0E4
:102914007B6804229A630123FB73D6E07B681B68FF
:102924001A687B681B6822F00E021A607B681B68B9
:102934001A687B681B6822F001021A607B681B68B6
:102944001A46644B9A4258D97B681B68624A934280
:102954004FD07B681B68614A934248D07B681B68F0
:102964005F4A934240D07B681B685E4A934238D0EA
:102974007B681B685C4A934230D07B681B685B4A67
:10298400934228D07B681B68524A934220D07B68CC
:102994001B68574A934219D07B681B68554A934277
:1029A40012D07B681B68544A93420AD07B681B6828
:1029B400524A934202D14FF480531BE04FF48033C8
:1029C40018E04FF4807315E0102313E0012311E0A5
:1029D4004FF080730EE04FF480130BE04FF480331C
:1029E40008E04FF4805305E04FF4807302E01023B5
:1029F40000E00123424A536057E07B681B68364A73
:102A040093424FD07B681B68344A934248D07B681A
:102A14001B68334A934240D07B681B68314A934217
:102A240038D07B681B68304A934230D07B681B687F
:102A34002E4A934228D07B681B68264A934220D0B2
:102A44007B681B682A4A934219D07B681B68294A11
:102A5400934212D07B681B68274A93420AD07B6852
:102A64001B68264A934202D14FF480531BE04FF473
:102A7400803318E04FF4807315E0102313E0012332
:102A840011E04FF080730EE04FF480130BE04FF42D
:102A9400803308E04FF4805305E04FF4807302E084
:102AA400102300E00123174A53607B68012283F856
:102AB40021207B68002283F820207B685B6B002B3D
:102AC40003D07B685B6B78689847FB7B18461037AC
:102AD400BD4680BD80000240080002401C00024048
:102AE4003000024044000240580002406C000240A2
:102AF400080402401C040240300402404404024022
:102B0400000402400000024080B584B000AF786049
:102B14007B68DB6B1B68FB607B681B681B68BB60A6
:102B24007B681B6C04229A40FB681340002B00F066
:102B3400F180BB6803F00403002B00F0EB807B689A
:102B44001B681B6803F02003002B07D17B681B68FC
:102B54001A687B681B6822F004021A607B681B6891
:102B64001A465F4B9A4258D97B681B685D4A934268
:102B74004FD07B681B685C4A934248D07B681B68D3
:102B84005A4A934240D07B681B68594A934238D0D2
:102B94007B681B68574A934230D07B681B68564A4F
:102BA400934228D07B681B684D4A934220D07B68AF
:102BB4001B68524A934219D07B681B68504A93425F
:102BC40012D07B681B684F4A93420AD07B681B680B
:102BD4004D4A934202D14FF480431BE04FF48023CB
:102BE40018E04FF4806315E0402313E0042311E060
:102BF4004FF080630EE04FF480030BE04FF480232A
:102C040008E04FF4804305E04FF4806302E0402382
:102C140000E004233D4A536057E07B681B68314A57
:102C240093424FD07B681B682F4A934248D07B68FD
:102C34001B682E4A934240D07B681B682C4A9342FF
:102C440038D07B681B682B4A934230D07B681B6862
:102C5400294A934228D07B681B68214A934220D09A
:102C64007B681B68254A934219D07B681B68244AF9
:102C7400934212D07B681B68224A93420AD07B6835
:102C84001B68214A934202D14FF480431BE04FF466
:102C9400802318E04FF4806315E0402313E00423FD
:102CA40011E04FF080630EE04FF480030BE04FF42B
:102CB400802308E04FF4804305E04FF4806302E092
:102CC400402300E00423124A53607B68DB6A002B34
:102CD40000F036817B68DB6A7868984730E100BF92
:102CE40080000240080002401C0002403000024004
:102CF40044000240580002406C00024008040240B4
:102D04001C04024030040240440402400004024017
:102D1400000002407B681B6C02229A40FB6813404F
:102D2400002B00F0DD80BB6803F00203002B00F0F1
:102D3400D7807B681B681B6803F02003002B0BD132
:102D44007B681B681A687B681B6822F00A021A6099
:102D54007B68012283F821207B681B681A467B4B21
:102D64009A4258D97B681B68794A93424FD07B6852
:102D74001B68784A934248D07B681B68764A934222
:102D840040D07B681B68754A934238D07B681B68C7
:102D9400734A934230D07B681B68724A934228D0AE
:102DA4007B681B68694A934220D07B681B686E4A23
:102DB400934219D07B681B686C4A934212D07B689B
:102DC4001B686B4A93420AD07B681B68694A93422A
:102DD40002D14FF400531BE04FF4003318E04FF4DA
:102DE400007315E0202313E0022311E04FF0007379
:102DF4000EE04FF400130BE04FF4003308E04FF4FF
:102E0400005305E04FF4007302E0202300E00223A6
:102E1400594A536057E07B681B684D4A93424FD030
:102E24007B681B684B4A934248D07B681B684A4ABC
:102E3400934240D07B681B68484A934238D07B68F1
:102E44001B68474A934230D07B681B68454A9342CB
:102E540028D07B681B683D4A934220D07B681B685E
:102E6400414A934219D07B681B68404A934212D06E
:102E74007B681B683E4A93420AD07B681B683D4AC4
:102E8400934202D14FF400531BE04FF4003318E097
:102E94004FF4007315E0202313E0022311E04FF0F8
:102EA40000730EE04FF400130BE04FF4003308E01E
:102EB4004FF4005305E04FF4007302E0202300E0D8
:102EC40002232E4A53607B68002283F820207B680B
:102ED4009B6A002B34D07B689B6A786898472FE004
:102EE4007B681B6C08229A40FB681340002B28D097
:102EF400BB6803F00803002B23D07B681B681A68A7
:102F04007B681B6822F00E021A607B681A6C7B686F
:102F1400DB6B012101FA02F25A607B6801229A6399
:102F24007B68012283F821207B68002283F820201B
:102F34007B681B6B002B04D07B681B6B78689847FD
:102F440000BF00BF1037BD4680BD00BF80000240F7
:102F5400080002401C0002403000024044000240CD
:102F6400580002406C000240080402401C04024065
:102F740030040240440402400004024000000240C5
:102F840080B485B000AFF860B9607A603B60FB68DC
:102F94001A6CFB68DB6B012101FA02F25A60FB68D0
:102FA4001B683A685A60FB685B68102B08D1FB68A1
:102FB4001B687A689A60FB681B68BA68DA6007E085
:102FC400FB681B68BA689A60FB681B687A68DA60F9
:102FD40000BF1437BD4680BC7047000080B48BB07E
:102FE40000AF7860396000237B6200233B6269E1B3
:102FF40001227B6A02FA03F3FB613B681B68FA69EE
:103004001340BB61BA69FB699A4240F058813B683E
:103014005B689A4A93425ED0984A934275D8984A1C
:10302400934258D0964A93426FD8964A934252D0CC
:10303400944A934269D8944A93424CD0924A934218
:1030440063D8924A934246D0904A93425DD8122B59
:103054002AD8122B59D801A252F823F0DB300008E9
:10306400B5300008C7300008093100080F310008E6
:103074000F3100080F3100080F3100080F3100082C
:103084000F3100080F3100080F3100080F3100081C
:103094000F3100080F3100080F3100080F3100080C
:1030A400BD300008D1300008794A934213D02CE097
:1030B4003B68DB683B6229E03B68DB6804333B62C6
:1030C40024E03B68DB6808333B621FE03B68DB6855
:1030D4000C333B621AE03B689B68002B02D104234B
:1030E4003B6213E03B689B68012B05D108233B62DC
:1030F4007B68FA691A6109E008233B627B68FA6914
:103104005A6103E000233B6200E000BFBB69FF2B70
:1031140001D87B6801E07B6804337B61BB69FF2BCA
:1031240002D87B6A9B0002E07B6A083B9B003B6100
:103134007B691A680F213B6901FA03F3DB431A40E8
:10314400396A3B6901FA03F31A437B691A603B68E5
:103154005B6803F08053002B00F0B1804D4B9B69FA
:103164004C4A43F0010393614A4B9B6903F001030A
:10317400BB60BB68484A7B6A9B08023352F8233021
:10318400FB607B6A03F003039B000F2202FA03F344
:10319400DB43FA681340FB607B68404A934213D0D8
:1031A4007B683F4A93420DD07B683E4A934207D0E6
:1031B4007B683D4A934201D1032306E0042304E0E3
:1031C400022302E0012300E000237A6A02F00302F2
:1031D40092009340FA681343FB602F497B6A9B0873
:1031E4000233FA6841F823203B685B6803F48013D8
:1031F400002B06D02D4B9A682C49BB6913438B6076
:1032040006E02A4B9A68BB69DB43284913408B606C
:103214003B685B6803F40013002B06D0234BDA6889
:103224002249BB691343CB6006E0204BDA68BB69D3
:10323400DB431E491340CB603B685B6803F40033F7
:10324400002B06D0194B5A681849BB6913434B60CD
:1032540006E0164B5A68BB69DB43144913404B60C4
:103264003B685B6803F48033002B21D00F4B1A6852
:103274000E49BB6913430B6021E000BF000032100C
:103284000000311000002210000021100000121074
:10329400000011100010024000000140000801402D
:1032A400000C0140001001400014014000040140E2
:1032B4000B4B1A68BB69DB43094913400B607B6AFB
:1032C40001337B623B681A687B6A22FA03F3002BA2
:1032D4007FF48EAE00BF00BF2C37BD4680BC704764
:1032E4000004014080B489B000AF786039600023E5
:1032F400FB619AE00122FB6902FA03F33A68134086
:10330400BB61BB69002B00F08D804E4AFB699B08B2
:10331400023352F823307B61FB6903F003039B0003
:103324000F2202FA03F37A6913407B617B68464AF1
:10333400934213D07B68454A93420DD07B68444A3C
:10334400934207D07B68434A934201D1032306E0AA
:10335400042304E0022302E0012300E00023FA69CD
:1033640002F00302920093407A699A4232D13A4BB6
:103374001A68BB69DB43384913400B60364B5A6803
:10338400BB69DB43344913404B60334BDA68BB6998
:10339400DB4331491340CB602F4B9A68BB69DB4355
:1033A4002D4913408B60FB6903F003039B000F223C
:1033B40002FA03F37B61234AFB699B08023352F848
:1033C40023107B69DA431F48FB699B080A400233D8
:1033D40040F82320BB69FF2B01D87B6801E07B68A0
:1033E40004333B61BB69FF2B02D8FB699B0002E0FD
:1033F400FB69083B9B00FB603B691A680F21FB6873
:1034040001FA03F3DB431A400421FB6801FA03F3D6
:103414001A433B691A607B68DA68BB69DB431A406C
:103424007B68DA60FB690133FB613A68FB6922FA65
:1034340003F3002B7FF45EAF00BF00BF2437BD460B
:1034440080BC70470000014000080140000C0140AE
:1034540000100140001401400004014080B483B016
:1034640000AF78600B467B8013467B707B78002B23
:1034740003D07A887B681A6103E07B881A047B682E
:103484001A6100BF0C37BD4680BC704780B586B05A
:1034940000AF78607B68002B01D1012304E37B68D3
:1034A4001B6803F00103002B00F08780924B5B68DC
:1034B40003F00C03042B0CD08F4B5B6803F00C035C
:1034C400082B12D18C4B5B6803F48033B3F5803F37
:1034D4000BD1894B1B6803F40033002B6CD07B6841
:1034E4009B68002B68D10123DEE27B689B68B3F5FF
:1034F400803F06D1804B1B687F4A43F480331360BE
:103504002EE07B689B68002B0CD17B4B1B687A4AAE
:1035140023F480331360784B1B68774A23F48023A9
:1035240013601DE07B689B68B3F5A02F0CD1724B30
:103534001B68714A43F4802313606F4B1B686E4A07
:1035440043F4803313600BE06B4B1B686A4A23F42B
:1035540080331360684B1B68674A23F4802313602D
:103564007B689B68002B13D0FEF7B0F8386108E045
:10357400FEF7ACF802463B69D31A642B01D9032346
:1035840092E25D4B1B6803F40033002BF0D014E08F
:10359400FEF79CF8386108E0FEF798F802463B69AC
:1035A400D31A642B01D903237EE2534B1B6803F423
:1035B4000033002BF0D100E000BF7B681B6803F0F0
:1035C4000203002B63D04C4B5B6803F00C03002B0D
:1035D4000BD0494B5B6803F00C03082B1CD1464B02
:1035E4005B6803F48033002B16D1434B1B6803F054
:1035F4000203002B05D07B685B69012B01D00123FA
:1036040052E23D4B1B6823F0F8027B689B69DB00A8
:10361400394913430B603AE07B685B69002B20D087
:10362400364B01221A60FEF751F8386108E0FEF7C4
:103634004DF802463B69D31A022B01D9032333E226
:103644002D4B1B6803F00203002BF0D02A4B1B68A0
:1036540023F0F8027B689B69DB00274913430B6066
:1036640015E0264B00221A60FEF730F8386108E0B6
:10367400FEF72CF802463B69D31A022B01D9032327
:1036840012E21D4B1B6803F00203002BF0D17B6890
:103694001B6803F00803002B3AD07B68DB69002B1E
:1036A40019D0174B01221A60FEF710F8386108E0B0
:1036B400FEF70CF802463B69D31A022B01D9032307
:1036C400F2E10D4B5B6A03F00203002BF0D0012002
:1036D40000F0CAFB1CE00A4B00221A60FDF7F6FF5B
:1036E40038610FE0FDF7F2FF02463B69D31A022B63
:1036F40008D90323D8E100BF001002400000424271
:10370400800442429B4B5B6A03F00203002BE9D125
:103714007B681B6803F00403002B00F0A6800023E1
:10372400FB75944BDB6903F08053002B0DD1914B57
:10373400DB69904A43F08053D3618E4BDB6903F01D
:103744008053BB60BB680123FB758B4B1B6803F480
:103754008073002B18D1884B1B68874A43F480730D
:103764001360FDF7B3FF386108E0FDF7AFFF0246D1
:103774003B69D31A642B01D9032395E17E4B1B6863
:1037840003F48073002BF0D07B681B69012B06D1F6
:10379400784B1B6A774A43F0010313622DE07B6880
:1037A4001B69002B0CD1734B1B6A724A23F0010373
:1037B4001362704B1B6A6F4A23F0040313621CE00C
:1037C4007B681B69052B0CD16A4B1B6A694A43F061
:1037D40004031362674B1B6A664A43F001031362D6
:1037E4000BE0644B1B6A634A23F001031362614BD1
:1037F4001B6A604A23F0040313627B681B69002B75
:1038040015D0FDF763FF38610AE0FDF75FFF02465C
:103814003B69D31A41F28832934201D9032343E12D
:10382400544B1B6A03F00203002BEED014E0FDF7A7
:103834004DFF38610AE0FDF749FF02463B69D31AA0
:1038440041F28832934201D903232DE1494B1B6A8B
:1038540003F00203002BEED1FB7D012B05D1454B78
:10386400DB69444A23F08053D3617B68DB6A002B15
:1038740000F08C803F4B5B6803F48033B3F5803FEA
:103884000ED13C4B5B6803F00C03082B08D1394B79
:10389400DB6A03F48033B3F5803F01D1012303E1F4
:1038A4007B68DB6A022B4ED1324B1B6803F08053DA
:1038B400002B09D02F4BDB6A03F0F0027B685B6BB3
:1038C4009A4201D00123EFE02C4B00221A60FDF74D
:1038D400FDFE386108E0FDF7F9FE02463B69D31AA4
:1038E400642B01D90323DFE0224B1B6803F0006340
:1038F400002BF0D11F4BDB6A23F0F0027B685B6B7B
:103904001C491343CB621B4BDB6A23F470627B6854
:103914001B6B18491343CB62184B01221A60FDF745
:10392400D5FE386108E0FDF7D1FE02463B69D31AA3
:10393400642B01D90323B7E00E4B1B6803F000632B
:10394400002BF0D022E00B4BDB6A0A4A23F48033CD
:10395400D3620A4B00221A60FDF7B8FE38610FE00B
:10396400FDF7B4FE02463B69D31A642B08D903233E
:103974009AE000BF0010024000700040680042421C
:103984004B4B1B6803F00063002BE9D17B681B6A77
:10399400002B00F08880464B5B6803F00C03082B77
:1039A40068D07B681B6A022B4DD1424B00221A60FF
:1039B400FDF78CFE386108E0FDF788FE02463B699E
:1039C400D31A022B01D903236EE0394B1B6803F091
:1039D4000073002BF0D17B685B6AB3F5803F0FD195
:1039E400334BDA6A7B685B6831491343CB62304BF3
:1039F400DB6A23F00F027B68DB682D491343CB623B
:103A04002B4B5B6823F474127B68596A7B689B6A4E
:103A14000B43274913434B60264B01221A60FDF7E1
:103A240055FE386108E0FDF751FE02463B69D31AA2
:103A3400022B01D9032337E01D4B1B6803F00073ED
:103A4400002BF0D02FE01B4B00221A60FDF73EFE46
:103A5400386108E0FDF73AFE02463B69D31A022BAF
:103A640001D9032320E0124B1B6803F00073002BE1
:103A7400F0D118E07B681B6A012B01D1012313E00C
:103A84000B4B5B68FB60FB6803F480327B685B6A0A
:103A94009A4206D1FB6803F470127B689B6A9A42CF
:103AA40001D0012300E0002318461837BD4680BD2D
:103AB400001002406000424280B584B000AF7860DC
:103AC40039607B68002B01D10123D0E06A4B1B686D
:103AD40003F007033A689A4210D9674B1B6823F036
:103AE400070265493B6813430B60634B1B6803F093
:103AF40007033A689A4201D00123B8E07B681B6847
:103B040003F00203002B20D07B681B6803F004033E
:103B1400002B05D0594B5B68584A43F4E06353606B
:103B24007B681B6803F00803002B05D0534B5B68CC
:103B3400524A43F460535360504B5B6823F0F002E5
:103B44007B689B684D4913434B607B681B6803F09B
:103B54000103002B40D07B685B68012B07D1474BE6
:103B64001B6803F40033002B15D101237FE07B682D
:103B74005B68022B07D1414B1B6803F00073002BD9
:103B840009D1012373E03D4B1B6803F00203002BB2
:103B940001D101236BE0394B5B6823F003027B689E
:103BA4005B68364913434B60FDF790FDF8600AE00B
:103BB400FDF78CFD0246FB68D31A41F2883293422A
:103BC40001D9032353E02D4B5B6803F00C027B689F
:103BD4005B689B009A42EBD1274B1B6803F00703F9
:103BE4003A689A4210D2244B1B6823F007022249F8
:103BF4003B6813430B60204B1B6803F007033A68D0
:103C04009A4201D0012332E07B681B6803F004036D
:103C1400002B08D0194B5B6823F4E0627B68DB68F7
:103C2400164913434B607B681B6803F00803002BA1
:103C340009D0124B5B6823F460527B681B69DB007C
:103C44000E4913434B6000F021F802460B4B5B68AE
:103C54001B0903F00F030A49CB5C22FA03F3094A58
:103C64001360094B1B681846FDF7EEFC0023184649
:103C74001037BD4680BD00BF002002400010024046
:103C84008851000800000020040000202DE9B04FF6
:103C94008EB000AF0023FB620023BB6200237B6372
:103CA40000237B6200233B6300233B620023FB6110
:103CB4004E4B5B68FB62FB6A03F00C03042B02D0DF
:103CC400082B03D089E04A4B3B6389E0FB6A9B0CD9
:103CD40003F00F02474B9B5C7B62FB6A03F4803367
:103CE400002B72D0414BDB6A03F00F02424B9B5C0A
:103CF400BB623E4BDB6A03F48033002B53D03B4B57
:103D0400DB6A1B0903F00F0301333B62374BDB6AA9
:103D14001B0A03F00F030233FB61FB6900229A467E
:103D240093467B6A00223B617A613B6903FB0BF299
:103D34007B690AFB03F313443A69AAFB02010B44AF
:103D440019462B4B03FB01F2002300FB03F313443E
:103D5400274AA0FB02452B441D463B6A0022BB6058
:103D6400FA60BB6A00223B607A60D7E902010B4625
:103D7400D7E900AB524602FB03F25B4684460CFBD8
:103D840003F3134402465146A2FB01894B4499466E
:103D940042464B4620462946FCF742FA02460B4669
:103DA40013467B6307E07B6A114A03FB02F2BB6A9A
:103DB400B2FBF3F37B630F4B5B7B1A467B6A934244
:103DC40008D17B6B5B087B6304E07B6A0B4A02FBD4
:103DD40003F37B637B6B3B6302E0094B3B6300BFF4
:103DE4003B6B18463837BD46BDE8B08F0010024023
:103DF40040787D01A0510008B051000800093D0041
:103E040000127A0080B400AF024B1B681846BD460E
:103E140080BC70470000002080B500AFFFF7F2FFC0
:103E24000246054B5B681B0A03F007030349CB5C9E
:103E340022FA03F3184680BD00100240985100088E
:103E440080B500AFFFF7DEFF0246054B5B68DB0A77
:103E540003F007030349CB5C22FA03F3184680BD41
:103E6400001002409851000880B485B000AF78601B
:103E74000A4B1B680A4AA2FB03235B0A7A6802FB0B
:103E840003F3FB6000BFFB685A1EFA60002BF9D1F4
:103E940000BF00BF1437BD4680BC7047000000203F
:103EA400D34D621080B582B000AF78607B68002B80
:103EB40001D1012342E07B6893F84130DBB2002B4F
:103EC40006D17B68002283F840207868FDF7C4F9A6
:103ED4007B68242283F841207B681B68DA687B684E
:103EE4001B6822F40052DA60786801F07DF87B6880
:103EF4001B681A697B681B6822F490421A617B680C
:103F04001B685A697B681B6822F02A025A617B6825
:103F14001B68DA687B681B6842F40052DA607B68CD
:103F240000225A647B68202283F841207B68202287
:103F340083F842207B6800225A630023184608371E
:103F4400BD4680BD80B58AB002AFF860B9603B6001
:103F54001346FB8000237B61FB6893F84130DBB29E
:103F6400202B6DD1BB68002B02D0FB88002B01D124
:103F7400012366E0FB6800225A64FB68212283F86F
:103F84004120FDF7A3FB7861FB68FA889A84FB68FB
:103F9400FA88DA84FB689B68B3F5805F08D1FB6814
:103FA4001B69002B04D10023FB61BB68BB6103E0E8
:103FB400BB68FB610023BB612AE03B6800937B691B
:103FC40000228021F86800F00CFD0346002B01D08C
:103FD400032336E0FB69002B0BD1BB691B881A460F
:103FE400FB681B68C2F308025A60BB690233BB61F9
:103FF40007E0FB691A78FB681B685A60FB690133A8
:10400400FB61FB68DB8C9BB2013B9AB2FB68DA84F0
:10401400FB68DB8C9BB2002BCFD13B6800937B69A0
:1040240000224021F86800F0DCFC0346002B01D09C
:10403400032306E0FB68202283F84120002300E0EC
:10404400022318462037BD4680BD80B584B000AF3A
:10405400F860B9601346FB80FB6893F84230DBB22A
:10406400202B12D1BB68002B02D0FB88002B01D17E
:1040740001230BE0FB6800221A63FB881A46B96827
:10408400F86800F01CFD034600E0022318461037D0
:10409400BD4680BD80B58CB000AFF860B9601346F2
:1040A400FB80FB6893F84130DBB2202B56D1BB6810
:1040B400002B02D0FB88002B01D101234FE0BA680A
:1040C400FB681A62FB68FA889A84FB68FA88DA84C7
:1040D400FB6800225A64FB68212283F84120FB68B4
:1040E4009B6B214A9A62FB689B6B204ADA62FB68ED
:1040F4009B6B1F4A1A63FB689B6B00225A6307F190
:104104000803FB62FB68986BFB6A1968FB681B6811
:1041140004331A46FB88FEF753FBFB681B686FF0F9
:1041240040021A60FB681B681433BB61BB6953E827
:10413400003F7B617B6943F08003BB62FB681B68C3
:104144001433BA6A7A623B62396A7A6A41E80023B4
:10415400FB61FB69002BE5D1002300E00223184634
:104164003037BD4680BD00BF35470008CF47000843
:104174005349000880B584B000AFF860B9601346B5
:10418400FB80FB6893F84230DBB2202B12D1BB6872
:10419400002B02D0FB88002B01D101230BE0FB682C
:1041A40000221A63FB881A46B968F86800F0C0FC5C
:1041B400034600E0022318461037BD4680BD0000C8
:1041C40080B5BAB000AF78607B681B681B68C7F81D
:1041D400E4307B681B68DB68C7F8E0307B681B68E9
:1041E4005B69C7F8DC300023C7F8D8300023C7F870
:1041F400D430D7F8E43003F00F03C7F8D830D7F839
:10420400D830002B0FD1D7F8E43003F02003002B73
:1042140009D0D7F8E03003F02003002B03D07868EE
:1042240000F024FE5BE2D7F8D830002B00F0DE80EB
:10423400D7F8DC3003F00103002B06D1D7F8E030C7
:1042440003F49073002B00F0D180D7F8E43003F02E
:104254000103002B0BD0D7F8E03003F48073002B5C
:1042640005D07B685B6C43F001027B685A64D7F825
:10427400E43003F00403002B0BD0D7F8DC3003F058
:104284000103002B05D07B685B6C43F002027B6862
:104294005A64D7F8E43003F00203002B0BD0D7F8AC
:1042A400DC3003F00103002B05D07B685B6C43F02A
:1042B40004027B685A64D7F8E43003F00803002B47
:1042C40011D0D7F8E03003F02003002B05D1D7F844
:1042D400DC3003F00103002B05D07B685B6C43F0FA
:1042E40008027B685A647B685B6C002B00F0F281E7
:1042F400D7F8E43003F02003002B08D0D7F8E030DF
:1043040003F02003002B02D0786800F0AFFD7B6837
:104314001B685B6903F04003002B14BF01230023D7
:10432400DBB2C7F8D4307B685B6C03F00803002B66
:1043340003D1D7F8D430002B4FD0786800F0B9FC03
:104344007B681B685B6903F04003002B41D07B68EA
:104354001B681433C7F89C30D7F89C3053E8003FEF
:10436400C7F89830D7F8983023F04003C7F8D03016
:104374007B681B681433D7F8D020C7F8A820C7F887
:10438400A430D7F8A410D7F8A82041E80023C7F830
:10439400A030D7F8A030002BD9D17B68DB6B002B81
:1043A40013D07B68DB6B7E4A5A637B68DB6B1846F1
:1043B400FEF7A2FA0346002B16D07B68DB6B5B6B1F
:1043C4007A68D26B104698470EE0786800F09CF942
:1043D4000AE0786800F098F906E0786800F094F94B
:1043E4007B6800225A6475E100BF73E17B681B6B34
:1043F400012B40F04F81D7F8E43003F01003002B79
:1044040000F04881D7F8E03003F01003002B00F0EF
:1044140041810023BB607B681B681B68BB607B68B1
:104424001B685B68BB60BB687B681B685B6903F0E7
:104434004003002B00F0B6807B68DB6B1B685B6875
:10444400A7F8BE30B7F8BE30002B00F045817B687A
:104454009B8DB7F8BE209A4280F03E817B68B7F806
:10446400BE20DA857B68DB6B9B69202B00F088809B
:104474007B681B680C33C7F88830D7F8883053E85A
:10448400003FC7F88430D7F8843023F48073C7F82A
:10449400B8307B681B680C33D7F8B820C7F8942071
:1044A400C7F89030D7F89010D7F8942041E800234B
:1044B400C7F88C30D7F88C30002BD9D17B681B68B7
:1044C40014337B677B6F53E8003F3B673B6F23F0FC
:1044D4000103C7F8B4307B681B681433D7F8B420E1
:1044E400C7F88020FB67F96FD7F8802041E80023E4
:1044F400BB67BB6F002BE1D17B681B6814333B6641
:104504003B6E53E8003FFB65FB6D23F04003C7F8A7
:10451400B0307B681B681433D7F8B020FA66BB66EA
:10452400B96EFA6E41E800237B667B6E002BE3D103
:104534007B68202283F842207B6800221A637B6810
:104544001B680C33FB64FB6C53E8003FBB64BB6C1F
:1045540023F01003C7F8AC307B681B680C33D7F822
:10456400AC20BA657B65796DBA6D41E800233B6583
:104574003B6D002BE3D17B68DB6B1846FEF780F9BB
:104584007B6802225A637B689A8D7B68DB8D9BB2C1
:10459400D31A9BB21946786800F0BFF89CE000BFBC
:1045A4007B4D00087B689A8D7B68DB8D9BB2D31AA8
:1045B400A7F8CE307B68DB8D9BB2002B00F08E8099
:1045C400B7F8CE30002B00F089807B681B680C3371
:1045D400BB63BB6B53E8003F7B637B6B23F490733B
:1045E400C7F8C8307B681B680C33D7F8C8207A64D6
:1045F4003B64396C7A6C41E80023FB63FB6B002B52
:10460400E3D17B681B6814337B627B6A53E8003F09
:104614003B623B6A23F00103C7F8C4307B681B6824
:104624001433D7F8C4203A63FB62F96A3A6B41E861
:104634000023BB62BB6A002BE3D17B68202283F892
:1046440042207B6800221A637B681B680C333B6141
:104654003B6953E8003FFB60FB6823F01003C7F895
:10466400C0307B681B680C33D7F8C020FA61BB618B
:10467400B969FA6941E800237B617B69002BE3D1C6
:104684007B6802225A63B7F8CE301946786800F086
:1046940044F823E0D7F8E43003F08003002B09D07A
:1046A400D7F8E03003F08003002B03D0786800F0E3
:1046B40076FB14E0D7F8E43003F04003002B0ED06F
:1046C400D7F8E03003F04003002B08D0786800F0FE
:1046D400B5FB04E000BF02E000BF00E000BFE83724
:1046E400BD4680BD80B483B000AF786000BF0C3796
:1046F400BD4680BC704780B483B000AF786000BF13
:104704000C37BD4680BC704780B483B000AF78607E
:1047140000BF0C37BD4680BC704780B483B000AF87
:1047240078600B467B8000BF0C37BD4680BC704769
:1047340080B590B000AF78607B685B6AFB637B6890
:104744001B681B6803F02003002B37D1FB6B00228E
:10475400DA84FB6B1B6814337B627B6A53E8003F8B
:104764003B623B6A23F08003BB63FB6B1B6814331F
:10477400BA6B3A63FB62F96A3A6B41E80023BB62A5
:10478400BB6A002BE5D1FB6B1B680C333B613B69B7
:1047940053E8003FFB60FB6843F040037B63FB6B23
:1047A4001B680C337A6BFA61BB61B969FA6941E839
:1047B40000237B617B69002BE5D102E0F86BFCF7F9
:1047C40069FE00BF4037BD4680BD80B584B000AFF0
:1047D40078607B685B6AFB60F868FFF783FF00BF63
:1047E4001037BD4680BD80B59CB000AF78607B6853
:1047F4005B6AFB667B681B681B6803F02003002B65
:1048040072D1FB6E0022DA85FB6E1B680C33FB64ED
:10481400FB6C53E8003FBB64BB6C23F48073BB6642
:10482400FB6E1B680C33BA6EBA657B65796DBA6D25
:1048340041E800233B653B6D002BE5D1FB6E1B6813
:104844001433BB63BB6B53E8003F7B637B6B23F088
:1048540001037B66FB6E1B6814337A6E7A643B64D7
:10486400396C7A6C41E80023FB63FB6B002BE5D1C8
:10487400FB6E1B6814337B627B6A53E8003F3B6228
:104884003B6A23F040033B66FB6E1B6814333A6EAD
:104894003A63FB62F96A3A6B41E80023BB62BB6A84
:1048A400002BE5D1FB6E202283F84220FB6E1B6BAC
:1048B400012B19D1FB6E1B680C333B613B6953E838
:1048C400003FFB60FB6823F01003FB65FB6E1B6875
:1048D4000C33FA6DFA61BB61B969FA6941E80023E6
:1048E4007B617B69002BE5D1FB6E00225A63FB6E72
:1048F4001B6B012B06D1FB6E9B8D1946F86EFFF7DF
:104904000CFF02E0F86EFCF7EBFD00BF7037BD460C
:1049140080BD80B584B000AF78607B685B6AFB6063
:10492400FB6801225A63FB681B6B012B08D1FB68EF
:104934009B8D5B089BB21946F868FFF7EEFE02E018
:10494400F868FFF7D8FE00BF1037BD4680BD80B5BC
:1049540084B000AF78600023FB607B685B6ABB6057
:10496400BB681B685B6903F08003002B14BF012341
:104974000023DBB2FB60BB6893F84130DBB2212B30
:1049840008D1FB68002B05D0BB680022DA84B86824
:1049940000F068F9BB681B685B6903F04003002BF7
:1049A40014BF01230023DBB2FB60BB6893F84230E1
:1049B400DBB2222B08D1FB68002B05D0BB68002298
:1049C400DA85B86800F075F9BB685B6C43F01002D7
:1049D400BB685A64B868FFF797FE00BF1037BD463E
:1049E40080BD80B590B000AFF860B9603B601346FD
:1049F400FB7150E0BB6CB3F1FF3F4CD0BB6C002BA0
:104A040007D0FCF763FE02463B68D31ABA6C9A429D
:104A140041D2FB681B680C33BB62BB6A53E8003F9E
:104A24007B627B6A23F4D073FB63FB681B680C33E3
:104A3400FA6B7A633B63396B7A6B41E80023FB6260
:104A4400FB6A002BE5D1FB681B6814337B617B692F
:104A540053E8003F3B613B6923F00103BB63FB6800
:104A64001B681433BA6B3A62FB61F9693A6A41E82C
:104A74000023BB61BB69002BE5D1FB68202283F8CE
:104A84004120FB68202283F84220FB68002283F83F
:104A9400402003230FE0FB681B681A68BB681340BF
:104AA400BA689A420CBF01230023DBB21A46FB7991
:104AB4009A429FD0002318464037BD4680BD80B43B
:104AC40085B000AFF860B9601346FB80FB68BA6834
:104AD4009A62FB68FA889A85FB68FA88DA85FB682B
:104AE40000225A64FB68222283F84220FB681B6977
:104AF400002B07D0FB681B68DA68FB681B6842F46C
:104B04008072DA60FB681B685A69FB681B6842F0B4
:104B140001025A61FB681B68DA68FB681B6842F093
:104B24002002DA60002318461437BD4680BC704763
:104B340080B598B000AFF860B9601346FB80BA68DE
:104B4400FB689A62FB68FA889A85FB6800225A64BB
:104B5400FB68222283F84220FB68DB6B3E4A9A62A0
:104B6400FB68DB6B3D4ADA62FB68DB6B3C4A1A6329
:104B7400FB68DB6B00225A6307F10803FB65FB68E3
:104B8400D86BFB681B6804331946FB6D1A68FB88F5
:104B9400FDF716FE00233B61FB681B681B683B6145
:104BA400FB681B685B683B613B69FB681B69002B06
:104BB40019D0FB681B680C333B643B6C53E8003F23
:104BC400FB63FB6B43F48073BB65FB681B680C33AE
:104BD400BA6DFA64BB64B96CFA6C41E800237B6477
:104BE4007B6C002BE5D1FB681B681433FB62FB6A0A
:104BF40053E8003FBB62BB6A43F001037B65FB687B
:104C04001B6814337A6DBA637B63796BBA6B41E8C2
:104C140000233B633B6B002BE5D1FB681B6814331B
:104C2400BB61BB6953E8003F7B617B6943F0400390
:104C34003B65FB681B6814333A6D7A623B62396AE0
:104C44007A6A41E80023FB61FB69002BE5D100236C
:104C540018466037BD4680BDEB4700081749000879
:104C64005349000880B489B000AF78607B681B6842
:104C74000C33FB60FB6853E8003FBB60BB6823F068
:104C8400C003FB617B681B680C33FA69BA617B6102
:104C94007969BA6941E800233B613B69002BE5D19E
:104CA4007B68202283F8412000BF2437BD4680BCA6
:104CB400704780B495B000AF78607B681B680C3394
:104CC4007B637B6B53E8003F3B633B6B23F4907344
:104CD400FB647B681B680C33FA6C3A64FB63F96B06
:104CE4003A6C41E80023BB63BB6B002BE5D17B68C6
:104CF4001B6814333B623B6A53E8003FFB61FB696A
:104D040023F00103BB647B681B681433BA6CFA623A
:104D1400BB62B96AFA6A41E800237B627B6A002BB2
:104D2400E5D17B681B6B012B19D17B681B680C33A5
:104D3400FB60FB6853E8003FBB60BB6823F01003D3
:104D44007B647B681B680C337A6CBA617B6179691C
:104D5400BA6941E800233B613B69002BE5D17B68DC
:104D6400202283F842207B6800221A6300BF543754
:104D7400BD4680BC704780B584B000AF78607B6866
:104D84005B6AFB60FB680022DA85FB680022DA8438
:104D9400F868FFF7B9FC00BF1037BD4680BD80B48A
:104DA40085B000AF78607B6893F84130DBB2212B8B
:104DB4003ED17B689B68B3F5805F14D17B681B6927
:104DC400002B10D17B681B6AFB60FB681B881A46AA
:104DD4007B681B68C2F308025A607B681B6A9A1CD2
:104DE4007B681A6208E07B681B6A591C7A68116246
:104DF4001A787B681B685A607B68DB8C9BB2013B2A
:104E04009BB27A681946D184002B0FD17B681B684A
:104E1400DA687B681B6822F08002DA607B681B68B2
:104E2400DA687B681B6842F04002DA60002300E025
:104E3400022318461437BD4680BC704780B582B043
:104E440000AF78607B681B68DA687B681B6822F0B7
:104E54004002DA607B68202283F841207868FCF7FE
:104E640019FB002318460837BD4680BD80B58CB0B9
:104E740000AF78607B6893F84230DBB2222B40F0BD
:104E8400AE807B689B68B3F5805F17D17B681B6934
:104E9400002B13D10023FB627B689B6ABB627B6897
:104EA4001B685B689BB2C3F308039AB2BB6A1A809F
:104EB4007B689B6A9A1C7B689A6226E07B689B6A83
:104EC400FB620023BB627B689B68B3F5805F07D0FD
:104ED4007B689B68002B0AD17B681B69002B06D179
:104EE4007B681B685B68DAB2FB6A1A7008E07B684F
:104EF4001B685B68DBB203F07F03DAB2FB6A1A70EB
:104F04007B689B6A5A1C7B689A627B68DB8D9BB2C8
:104F1400013B9BB27A681946D185002B5DD17B6831
:104F24001B68DA687B681B6822F02002DA607B6801
:104F34001B68DA687B681B6822F48072DA607B681D
:104F44001B685A697B681B6822F001025A617B68FE
:104F5400202283F842207B6800225A637B681B6B03
:104F6400012B35D17B6800221A637B681B680C33E4
:104F74007B617B6953E8003F3B613B6923F010038D
:104F84007B627B681B680C337A6A3A62FB61F9695D
:104F94003A6A41E80023BB61BB69002BE5D17B6819
:104FA4001B681B6803F01003102B0AD10023FB605D
:104FB4007B681B681B68FB607B681B685B68FB6025
:104FC400FB687B689B8D19467868FFF7A6FB02E0B7
:104FD4007868FCF785FA002302E0002300E002234E
:104FE40018463037BD4680BD80B584B000AF7860C8
:104FF4007B681B681B6923F440517B68DA687B6813
:105004001B680A431A617B689A687B681B691A43A8
:105014007B685B691343BB607B681B68DB6823F4B4
:10502400B05323F00C037A681268B9680B43D36059
:105034007B681B685B6923F440717B689A697B68B1
:105044001B680A435A617B681B682C4A934203D14C
:10505400FEF7F6FEF86002E0FEF7DEFEF860FA689E
:1050640013469B0013449A001A447B685B689B00B8
:10507400B2FBF3F3224AA2FB03235B091901FA688A
:1050840013469B0013449A001A447B685B689B0098
:10509400B2FBF3F21A4BA3FB02035B09642000FB8F
:1050A40003F3D31A1B013233154AA2FB03235B0912
:1050B40003F0F0031944FA6813469B0013449A0062
:1050C4001A447B685B689B00B2FBF3F20C4BA3FBB6
:1050D40002035B09642000FB03F3D31A1B01323380
:1050E400074AA2FB03235B0903F00F027B681B68DA
:1050F4000A449A6000BF1037BD4680BD00380140A5
:105104001F85EB5103460244934200D1704703F8D4
:10511400011BF9E770B500260C4D0D4C641BA4105F
:10512400A64209D100F01AF800260A4D0A4C641B65
:10513400A410A64205D170BD55F8043B984701362A
:10514400EEE755F8043B98470136F2E7C8510008EA
:10515400C8510008C8510008CC510008F8B500BF78
:10516400F8BC08BC9E467047F8B500BFF8BC08BC44
:045174009E4670479C
:105178004572726F725F48616E646C657200000000
:1051880000000000000000000102030406070809EF
:1051980000000000010203040000040506070809D6
:1051A80000000000000D00000102030405060708C6
:0851B800090A0B0C0D0E0F108B
:0851C00094B0FF7F0100000024
:0451C80009020008D0
:0451CC00E5010008F1
:0C51D0000024F4001000000001000000AA
:04000005080015D505
:00000001FF
